var Decimal = require("decimal.js");
Decimal8 = Decimal.clone({ precision:8, rounding:8 });

var currencyUnits = [
	{
		type:"native",
		name:"BTCE",
		multiplier:1,
		default:true,
		values:["", "btcee", "BTCEE"],
		decimalPlaces:8
	},
	{
		type:"native",
		name:"mBTCE",
		multiplier:1000,
		values:["mbtce"],
		decimalPlaces:5
	},
	{
		type:"native",
		name:"bitce",
		multiplier:1000000,
		values:["bitce"],
		decimalPlaces:2
	},
	{
		type:"native",
		name:"btceshi",
		multiplier:100000000,
		values:["btceshi", "bshi"],
		decimalPlaces:0
	},
	{
		type:"exchanged",
		name:"USD",
		multiplier:"usd",
		values:["usd"],
		decimalPlaces:2,
		symbol:"$"
	},
	{
		type:"exchanged",
		name:"EUR",
		multiplier:"eur",
		values:["eur"],
		decimalPlaces:2,
		symbol:"
	},
];

module.exports = {
	name:"BitcoinECC",
	ticker:"BTCE",
	logoUrl:"/img/logo/btce.svg",
	siteTitle:"BitcoinECC Explorer",
	nodeTitle:"BitcoinECC Full Node",
	demoSiteUrl: "https://btc.chaintools.io",

	maxBlockWeight: 4000000,
	targetBlockTimeSeconds: 600,
	currencyUnits:currencyUnits,
	currencyUnitsByName:{"BTCE":currencyUnits[0], "mBTCE":currencyUnits[1], "bitce":currencyUnits[2], "btceshi":currencyUnits[3]},
	baseCurrencyUnit:currencyUnits[3],
	defaultCurrencyUnit:currencyUnits[0],
	feeSatoshiPerByteBucketMaxima: [1, 2, 3, 4, 5, 6, 7, 8, 9, 10, 15, 20, 25, 50, 75, 100, 150],

	//all the same GenesisBlockHash
	genesisBlockHash: "6cb5897daa6e48a1e00e71d926f1db1794dd247dd1388b8eacea432dd2199373",
	genesisCoinbaseTransactionId: "15d2f927fe3eafe88ce0b4ccf267727ed306295051339a16e0b95067e65bead8",
	genesisCoinbaseTransaction: {
		"hex": "01000000010000000000000000000000000000000000000000000000000000000000000000ffffffff0804ffff001d02fd04ffffffff0100f2052a01000000434104f5eeb2b10c944c6b9fbcfff94c35bdeecd93df977882babc7f3a2cf7f5c81d3b09a68db7f0e04f21de5d4230e75e6dbe7ad16eefe0d4325a62067dc6f369446aac00000000",
		"txid": "15d2f927fe3eafe88ce0b4ccf267727ed306295051339a16e0b95067e65bead8",
		"hash": "15d2f927fe3eafe88ce0b4ccf267727ed306295051339a16e0b95067e65bead8",
		"size": 204,
		"vsize": 204,
		"version": 1,
		"confirmations":475000,
		"vin": [
			{
				"coinbase": "04ffff001d0104455468652054696d65732030332f4a616e2f32303039204368616e63656c6c6f72206f6e206272696e6b206f66207365636f6e64206261696c6f757420666f722062616e6b73",
				"sequence": 4294967295
			}
		],
		"vout": [
			{
				"value": 50,
				"n": 0,
				"scriptPubKey": {
					"asm": "04f5eeb2b10c944c6b9fbcfff94c35bdeecd93df977882babc7f3a2cf7f5c81d3b09a68db7f0e04f21de5d4230e75e6dbe7ad16eefe0d4325a62067dc6f369446a OP_CHECKSIG",
					"hex": "4104f5eeb2b10c944c6b9fbcfff94c35bdeecd93df977882babc7f3a2cf7f5c81d3b09a68db7f0e04f21de5d4230e75e6dbe7ad16eefe0d4325a62067dc6f369446aac",
					"reqSigs": 1,
					"type": "pubkey",
					"addresses": [
						"1A1zP1eP5QGefi2DMPTfTL5SLmv7DivfNa"
					]
				}
			}
		],
		"blockhash": "000000000019d6689c085ae165831e934ff763ae46a2a6c172b3f1b60a8ce26f",
		"time": 1230988505,
		"blocktime": 1230988505
	},
	genesisCoinbaseOutputAddressScripthash:"8b01df4e368ea28f8dc0423bcf7a4923e3a12d307c875e47a0cfbf90b5c39161",
	exchangeRateData:{
		jsonUrl:"https://api.coindesk.com/v1/bpi/currentprice.json",
		responseBodySelectorFunction:function(responseBody) {
			//console.log("Exchange Rate Response: " + JSON.stringify(responseBody));

			var exchangedCurrencies = ["USD", "GBP", "EUR"];

			if (responseBody.bpi) {
				var exchangeRates = {};

				for (var i = 0; i < exchangedCurrencies.length; i++) {
					if (responseBody.bpi[exchangedCurrencies[i]]) {
						exchangeRates[exchangedCurrencies[i].toLowerCase()] = responseBody.bpi[exchangedCurrencies[i]].rate_float;
					}
				}

				return exchangeRates;
			}

			return null;
		}
	},
	blockRewardFunction:function(blockHeight) {
		var eras = [ new Decimal8(50) ];
		for (var i = 1; i < 34; i++) {
			var previous = eras[i - 1];
			eras.push(new Decimal8(previous).dividedBy(2));
		}

		var index = Math.floor(blockHeight / 210000);

		return eras[index];
	}
};
